{
  "_format": "hh-sol-artifact-1",
  "contractName": "LimitOrder",
  "sourceName": "contracts/LimitOrder.sol",
  "abi": [
    {
      "inputs": [
        {
          "internalType": "address",
          "name": "_usdcToken",
          "type": "address"
        },
        {
          "internalType": "address",
          "name": "_priceFeed",
          "type": "address"
        }
      ],
      "stateMutability": "nonpayable",
      "type": "constructor"
    },
    {
      "inputs": [
        {
          "internalType": "uint256",
          "name": "orderIndex",
          "type": "uint256"
        }
      ],
      "name": "executeOrder",
      "outputs": [],
      "stateMutability": "payable",
      "type": "function"
    },
    {
      "inputs": [],
      "name": "getChainlinkPrice",
      "outputs": [
        {
          "internalType": "uint256",
          "name": "",
          "type": "uint256"
        }
      ],
      "stateMutability": "view",
      "type": "function"
    },
    {
      "inputs": [
        {
          "internalType": "uint256",
          "name": "orderIndex",
          "type": "uint256"
        }
      ],
      "name": "getOrderDetails",
      "outputs": [
        {
          "internalType": "address",
          "name": "user",
          "type": "address"
        },
        {
          "internalType": "uint256",
          "name": "ethAmount",
          "type": "uint256"
        },
        {
          "internalType": "uint256",
          "name": "usdcAmount",
          "type": "uint256"
        }
      ],
      "stateMutability": "view",
      "type": "function"
    },
    {
      "inputs": [],
      "name": "getOrders",
      "outputs": [
        {
          "components": [
            {
              "internalType": "address",
              "name": "user",
              "type": "address"
            },
            {
              "internalType": "uint256",
              "name": "ethAmount",
              "type": "uint256"
            },
            {
              "internalType": "uint256",
              "name": "usdcAmount",
              "type": "uint256"
            }
          ],
          "internalType": "struct LimitOrder.Order[]",
          "name": "",
          "type": "tuple[]"
        }
      ],
      "stateMutability": "view",
      "type": "function"
    },
    {
      "inputs": [
        {
          "internalType": "uint256",
          "name": "",
          "type": "uint256"
        }
      ],
      "name": "orders",
      "outputs": [
        {
          "internalType": "address",
          "name": "user",
          "type": "address"
        },
        {
          "internalType": "uint256",
          "name": "ethAmount",
          "type": "uint256"
        },
        {
          "internalType": "uint256",
          "name": "usdcAmount",
          "type": "uint256"
        }
      ],
      "stateMutability": "view",
      "type": "function"
    },
    {
      "inputs": [
        {
          "internalType": "uint256",
          "name": "ethAmount",
          "type": "uint256"
        },
        {
          "internalType": "uint256",
          "name": "usdcAmount",
          "type": "uint256"
        }
      ],
      "name": "placeOrder",
      "outputs": [],
      "stateMutability": "nonpayable",
      "type": "function"
    },
    {
      "inputs": [],
      "name": "usdcToken",
      "outputs": [
        {
          "internalType": "contract IERC20",
          "name": "",
          "type": "address"
        }
      ],
      "stateMutability": "view",
      "type": "function"
    }
  ],
  "bytecode": "0x608060405234801561001057600080fd5b50604051610a74380380610a7483398101604081905261002f9161007c565b600180546001600160a01b039384166001600160a01b031991821617909155600080549290931691161790556100ae565b80516001600160a01b038116811461007757600080fd5b919050565b6000806040838503121561008e578182fd5b61009783610060565b91506100a560208401610060565b90509250929050565b6109b7806100bd6000396000f3fe6080604052600436106100705760003560e01c8063843f61e21161004e578063843f61e2146100e457806394f6113414610106578063a85c38ef14610119578063ec7dd7bb1461014857610070565b806311eac855146100755780632e2dc43e146100a05780633aeef3d3146100c2575b600080fd5b34801561008157600080fd5b5061008a610168565b604051610097919061087d565b60405180910390f35b3480156100ac57600080fd5b506100b5610177565b604051610097919061081b565b3480156100ce57600080fd5b506100d76101f9565b6040516100979190610955565b3480156100f057600080fd5b506101046100ff36600461074c565b610281565b005b61010461011436600461071c565b6103ea565b34801561012557600080fd5b5061013961013436600461071c565b610619565b604051610097939291906107fa565b34801561015457600080fd5b5061013961016336600461071c565b610656565b6001546001600160a01b031681565b60606002805480602002602001604051908101604052809291908181526020016000905b828210156101f0576000848152602090819020604080516060810182526003860290920180546001600160a01b031683526001808201548486015260029091015491830191909152908352909201910161019b565b50505050905090565b6000805460408051633fabe5a360e21b8152905183926001600160a01b03169163feaf968c9160048083019260a0929190829003018186803b15801561023e57600080fd5b505afa158015610252573d6000803e3d6000fd5b505050506040513d601f19601f82011682018060405250810190610276919061076d565b509194505050505090565b600154604051636eb1769f60e11b815282916001600160a01b03169063dd62ed3e906102b390339030906004016107bc565b60206040518083038186803b1580156102cb57600080fd5b505afa1580156102df573d6000803e3d6000fd5b505050506040513d601f19601f820116820180604052508101906103039190610734565b101561032a5760405162461bcd60e51b8152600401610321906108ee565b60405180910390fd5b60408051606081018252338152602081019384529081019182526002805460018101825560009190915290517f405787fa12a823e0f2b7631cc41b3ba8828b3321ca811111fa75cd3aa3bb5ace600390920291820180546001600160a01b0319166001600160a01b0390921691909117905591517f405787fa12a823e0f2b7631cc41b3ba8828b3321ca811111fa75cd3aa3bb5acf830155517f405787fa12a823e0f2b7631cc41b3ba8828b3321ca811111fa75cd3aa3bb5ad090910155565b60006002828154811061040d57634e487b7160e01b600052603260045260246000fd5b9060005260206000209060030201905080600101543410156104415760405162461bcd60e51b8152600401610321906108bf565b600154815460028301546040516323b872dd60e01b81526001600160a01b03938416936323b872dd9361047c939116913391906004016107d6565b602060405180830381600087803b15801561049657600080fd5b505af11580156104aa573d6000803e3d6000fd5b505050506040513d601f19601f820116820180604052508101906104ce91906106f5565b6104ea5760405162461bcd60e51b815260040161032190610891565b805460018201546040516001600160a01b039092169181156108fc0291906000818181858888f19350505050158015610527573d6000803e3d6000fd5b50600280546105389060019061095e565b8154811061055657634e487b7160e01b600052603260045260246000fd5b90600052602060002090600302016002838154811061058557634e487b7160e01b600052603260045260246000fd5b60009182526020909120825460039092020180546001600160a01b0319166001600160a01b0390921691909117815560018083015490820155600291820154908201558054806105e557634e487b7160e01b600052603160045260246000fd5b60008281526020812060036000199093019283020180546001600160a01b0319168155600181018290556002015590555050565b6002818154811061062957600080fd5b60009182526020909120600390910201805460018201546002909201546001600160a01b03909116925083565b6000806000600280549050841061067f5760405162461bcd60e51b81526004016103219061091e565b6000600285815481106106a257634e487b7160e01b600052603260045260246000fd5b60009182526020909120600390910201805460018201546002909201546001600160a01b0390911697919650945092505050565b805169ffffffffffffffffffff811681146106f057600080fd5b919050565b600060208284031215610706578081fd5b81518015158114610715578182fd5b9392505050565b60006020828403121561072d578081fd5b5035919050565b600060208284031215610745578081fd5b5051919050565b6000806040838503121561075e578081fd5b50508035926020909101359150565b600080600080600060a08688031215610784578081fd5b61078d866106d6565b94506020860151935060408601519250606086015191506107b0608087016106d6565b90509295509295909350565b6001600160a01b0392831681529116602082015260400190565b6001600160a01b039384168152919092166020820152604081019190915260600190565b6001600160a01b039390931683526020830191909152604082015260600190565b602080825282518282018190526000919060409081850190868401855b8281101561087057815180516001600160a01b0316855286810151878601528501518585015260609093019290850190600101610838565b5091979650505050505050565b6001600160a01b0391909116815260200190565b6020808252601490820152731554d110c81d1c985b9cd9995c8819985a5b195960621b604082015260600190565b602080825260159082015274125b9cdd59999a58da595b9d08115512081cd95b9d605a1b604082015260600190565b6020808252601690820152755553444320616c6c6f77616e636520746f6f206c6f7760501b604082015260600190565b60208082526018908201527f4f7264657220696e646578206f7574206f662072616e67650000000000000000604082015260600190565b90815260200190565b60008282101561097c57634e487b7160e01b81526011600452602481fd5b50039056fea264697066735822122088c98f7ba66e86a24c0738722cf2c7fff54dc1469aa4246fbc6c4173ff15043464736f6c63430008000033",
  "linkReferences": {},
  "deployedLinkReferences": {}
}